{
	"data": {
		"bytecode": {
			"linkReferences": {},
			"object": "6080604052348015600e575f80fd5b50611c5b8061001c5f395ff3fe60806040526004361061003e575f3560e01c8063117a5b90146100425780637255d72914610082578063dea9456d1461008c578063efaa55a0146100b4575b5f80fd5b34801561004d575f80fd5b506100686004803603810190610063919061156f565b6100d0565b6040516100799594939291906116a1565b60405180910390f35b61008a610167565b005b348015610097575f80fd5b506100b260048036038101906100ad91906116f2565b6104df565b005b6100ce60048036038101906100c9919061156f565b610a56565b005b5f81815481106100de575f80fd5b905f5260205f2090600502015f91509050805f015f9054906101000a900473ffffffffffffffffffffffffffffffffffffffff1690806001015f9054906101000a900473ffffffffffffffffffffffffffffffffffffffff16908060010160149054906101000a900460ff1690806003015f9054906101000a900460ff16908060040154905085565b5f34116101a9576040517f08c379a00000000000000000000000000000000000000000000000000000000081526004016101a0906117b0565b60405180910390fd5b5f6040518060c001604052803373ffffffffffffffffffffffffffffffffffffffff1681526020015f73ffffffffffffffffffffffffffffffffffffffff1681526020015f6002811115610200576101ff6115d9565b5b81526020016040518061012001604052805f6002811115610224576102236115d9565b5b6002811115610236576102356115d9565b5b81526020015f600281111561024e5761024d6115d9565b5b60028111156102605761025f6115d9565b5b81526020015f6002811115610278576102776115d9565b5b600281111561028a576102896115d9565b5b81526020015f60028111156102a2576102a16115d9565b5b60028111156102b4576102b36115d9565b5b81526020015f60028111156102cc576102cb6115d9565b5b60028111156102de576102dd6115d9565b5b81526020015f60028111156102f6576102f56115d9565b5b6002811115610308576103076115d9565b5b81526020015f60028111156103205761031f6115d9565b5b6002811115610332576103316115d9565b5b81526020015f600281111561034a576103496115d9565b5b600281111561035c5761035b6115d9565b5b81526020015f6002811115610374576103736115d9565b5b6002811115610386576103856115d9565b5b81525081526020015f60028111156103a1576103a06115d9565b5b815260200134815250908060018154018082558091505060019003905f5260205f2090600502015f909190919091505f820151815f015f6101000a81548173ffffffffffffffffffffffffffffffffffffffff021916908373ffffffffffffffffffffffffffffffffffffffff1602179055506020820151816001015f6101000a81548173ffffffffffffffffffffffffffffffffffffffff021916908373ffffffffffffffffffffffffffffffffffffffff16021790555060408201518160010160146101000a81548160ff02191690836002811115610485576104846115d9565b5b02179055506060820151816002019060096104a1929190611477565b506080820151816003015f6101000a81548160ff021916908360028111156104cc576104cb6115d9565b5b021790555060a082015181600401555050565b5f8083815481106104f3576104f26117ce565b5b905f5260205f20906005020190505f6002811115610514576105136115d9565b5b816003015f9054906101000a900460ff166002811115610537576105366115d9565b5b14610577576040517f08c379a000000000000000000000000000000000000000000000000000000000815260040161056e90611845565b60405180910390fd5b5f600281111561058a576105896115d9565b5b8160010160149054906101000a900460ff1660028111156105ae576105ad6115d9565b5b036105ee576040517f08c379a00000000000000000000000000000000000000000000000000000000081526004016105e5906118ad565b60405180910390fd5b5f6002811115610601576106006115d9565b5b816002018360098110610617576106166117ce565b5b602091828204019190069054906101000a900460ff16600281111561063f5761063e6115d9565b5b1461067f576040517f08c379a000000000000000000000000000000000000000000000000000000000815260040161067690611915565b60405180910390fd5b805f015f9054906101000a900473ffffffffffffffffffffffffffffffffffffffff1673ffffffffffffffffffffffffffffffffffffffff163373ffffffffffffffffffffffffffffffffffffffff1614806107295750806001015f9054906101000a900473ffffffffffffffffffffffffffffffffffffffff1673ffffffffffffffffffffffffffffffffffffffff163373ffffffffffffffffffffffffffffffffffffffff16145b610768576040517f08c379a000000000000000000000000000000000000000000000000000000000815260040161075f9061197d565b60405180910390fd5b805f015f9054906101000a900473ffffffffffffffffffffffffffffffffffffffff1673ffffffffffffffffffffffffffffffffffffffff163373ffffffffffffffffffffffffffffffffffffffff161480156107fa5750600160028111156107d4576107d36115d9565b5b8160010160149054906101000a900460ff1660028111156107f8576107f76115d9565b5b145b15610878576001816002018360098110610817576108166117ce565b5b602091828204019190066101000a81548160ff02191690836002811115610841576108406115d9565b5b021790555060028160010160146101000a81548160ff0219169083600281111561086e5761086d6115d9565b5b02179055506109c4565b806001015f9054906101000a900473ffffffffffffffffffffffffffffffffffffffff1673ffffffffffffffffffffffffffffffffffffffff163373ffffffffffffffffffffffffffffffffffffffff1614801561090a57506002808111156108e4576108e36115d9565b5b8160010160149054906101000a900460ff166002811115610908576109076115d9565b5b145b15610988576002816002018360098110610927576109266117ce565b5b602091828204019190066101000a81548160ff02191690836002811115610951576109506115d9565b5b021790555060018160010160146101000a81548160ff0219169083600281111561097e5761097d6115d9565b5b02179055506109c3565b6040517f08c379a00000000000000000000000000000000000000000000000000000000081526004016109ba906119e5565b60405180910390fd5b5b6109cd83610c38565b15610a0c576001816003015f6101000a81548160ff021916908360028111156109f9576109f86115d9565b5b0217905550610a07836111c8565b610a51565b610a15836112cf565b15610a50576002816003015f6101000a81548160ff02191690836002811115610a4157610a406115d9565b5b0217905550610a4f8361137c565b5b5b505050565b5f808281548110610a6a57610a696117ce565b5b905f5260205f20906005020190505f6002811115610a8b57610a8a6115d9565b5b816003015f9054906101000a900460ff166002811115610aae57610aad6115d9565b5b14610aee576040517f08c379a0000000000000000000000000000000000000000000000000000000008152600401610ae590611a4d565b60405180910390fd5b5f73ffffffffffffffffffffffffffffffffffffffff16816001015f9054906101000a900473ffffffffffffffffffffffffffffffffffffffff1673ffffffffffffffffffffffffffffffffffffffff1614610b7f576040517f08c379a0000000000000000000000000000000000000000000000000000000008152600401610b7690611ab5565b60405180910390fd5b80600401543414610bc5576040517f08c379a0000000000000000000000000000000000000000000000000000000008152600401610bbc90611b1d565b60405180910390fd5b33816001015f6101000a81548173ffffffffffffffffffffffffffffffffffffffff021916908373ffffffffffffffffffffffffffffffffffffffff16021790555060018160010160146101000a81548160ff02191690836002811115610c2f57610c2e6115d9565b5b02179055505050565b5f805f8381548110610c4d57610c4c6117ce565b5b905f5260205f20906005020190505f81600201600980602002604051908101604052809291908260098015610cca576020028201915f905b82829054906101000a900460ff166002811115610ca557610ca46115d9565b5b815260200190600101906020825f01049283019260010382029150808411610c855790505b505050505090505f5b60038160ff161015610fa2575f6002811115610cf257610cf16115d9565b5b82600383610d009190611b74565b60ff1660098110610d1457610d136117ce565b5b60200201516002811115610d2b57610d2a6115d9565b5b14158015610db45750816001600383610d449190611b74565b610d4e9190611bb0565b60ff1660098110610d6257610d616117ce565b5b60200201516002811115610d7957610d786115d9565b5b82600383610d879190611b74565b60ff1660098110610d9b57610d9a6117ce565b5b60200201516002811115610db257610db16115d9565b5b145b8015610e475750816002600383610dcb9190611b74565b610dd59190611bb0565b60ff1660098110610de957610de86117ce565b5b60200201516002811115610e0057610dff6115d9565b5b826001600384610e109190611b74565b610e1a9190611bb0565b60ff1660098110610e2e57610e2d6117ce565b5b60200201516002811115610e4557610e446115d9565b5b145b15610e5857600193505050506111c3565b5f6002811115610e6b57610e6a6115d9565b5b828260ff1660098110610e8157610e806117ce565b5b60200201516002811115610e9857610e976115d9565b5b14158015610f09575081600382610eaf9190611bb0565b60ff1660098110610ec357610ec26117ce565b5b60200201516002811115610eda57610ed96115d9565b5b828260ff1660098110610ef057610eef6117ce565b5b60200201516002811115610f0757610f066115d9565b5b145b8015610f84575081600682610f1e9190611bb0565b60ff1660098110610f3257610f316117ce565b5b60200201516002811115610f4957610f486115d9565b5b82600383610f579190611bb0565b60ff1660098110610f6b57610f6a6117ce565b5b60200201516002811115610f8257610f816115d9565b5b145b15610f9557600193505050506111c3565b8080600101915050610cd3565b505f6002811115610fb657610fb56115d9565b5b815f60098110610fc957610fc86117ce565b5b60200201516002811115610fe057610fdf6115d9565b5b14158015611040575080600460098110610ffd57610ffc6117ce565b5b60200201516002811115611014576110136115d9565b5b815f60098110611027576110266117ce565b5b6020020151600281111561103e5761103d6115d9565b5b145b801561109f57508060086009811061105b5761105a6117ce565b5b60200201516002811115611072576110716115d9565b5b81600460098110611086576110856117ce565b5b6020020151600281111561109d5761109c6115d9565b5b145b156110af576001925050506111c3565b5f60028111156110c2576110c16115d9565b5b816002600981106110d6576110d56117ce565b5b602002015160028111156110ed576110ec6115d9565b5b1415801561114e57508060046009811061110a576111096117ce565b5b60200201516002811115611121576111206115d9565b5b81600260098110611135576111346117ce565b5b6020020151600281111561114c5761114b6115d9565b5b145b80156111ad575080600660098110611169576111686117ce565b5b602002015160028111156111805761117f6115d9565b5b81600460098110611194576111936117ce565b5b602002015160028111156111ab576111aa6115d9565b5b145b156111bd576001925050506111c3565b5f925050505b919050565b5f8082815481106111dc576111db6117ce565b5b905f5260205f20906005020190505f6002808111156111fe576111fd6115d9565b5b8260010160149054906101000a900460ff166002811115611222576112216115d9565b5b1461125057816001015f9054906101000a900473ffffffffffffffffffffffffffffffffffffffff16611274565b815f015f9054906101000a900473ffffffffffffffffffffffffffffffffffffffff165b90508073ffffffffffffffffffffffffffffffffffffffff166108fc600284600401546112a19190611be4565b90811502906040515f60405180830381858888f193505050501580156112c9573d5f803e3d5ffd5b50505050565b5f805f83815481106112e4576112e36117ce565b5b905f5260205f20906005020190505f5b60098160ff161015611370575f6002811115611313576113126115d9565b5b826002018260ff166009811061132c5761132b6117ce565b5b602091828204019190069054906101000a900460ff166002811115611354576113536115d9565b5b03611363575f92505050611377565b80806001019150506112f4565b5060019150505b919050565b5f8082815481106113905761138f6117ce565b5b905f5260205f2090600502019050805f015f9054906101000a900473ffffffffffffffffffffffffffffffffffffffff1673ffffffffffffffffffffffffffffffffffffffff166108fc826004015490811502906040515f60405180830381858888f19350505050158015611407573d5f803e3d5ffd5b50806001015f9054906101000a900473ffffffffffffffffffffffffffffffffffffffff1673ffffffffffffffffffffffffffffffffffffffff166108fc826004015490811502906040515f60405180830381858888f19350505050158015611472573d5f803e3d5ffd5b505050565b826009601f0160209004810192821561150c579160200282015f5b838211156114de57835183826101000a81548160ff021916908360028111156114be576114bd6115d9565b5b021790555092602001926001016020815f01049283019260010302611492565b801561150a5782816101000a81549060ff02191690556001016020815f010492830192600103026114de565b505b509050611519919061151d565b5090565b5b80821115611534575f815f90555060010161151e565b5090565b5f80fd5b5f819050919050565b61154e8161153c565b8114611558575f80fd5b50565b5f8135905061156981611545565b92915050565b5f6020828403121561158457611583611538565b5b5f6115918482850161155b565b91505092915050565b5f73ffffffffffffffffffffffffffffffffffffffff82169050919050565b5f6115c38261159a565b9050919050565b6115d3816115b9565b82525050565b7f4e487b71000000000000000000000000000000000000000000000000000000005f52602160045260245ffd5b60038110611617576116166115d9565b5b50565b5f81905061162782611606565b919050565b5f6116368261161a565b9050919050565b6116468161162c565b82525050565b6003811061165d5761165c6115d9565b5b50565b5f81905061166d8261164c565b919050565b5f61167c82611660565b9050919050565b61168c81611672565b82525050565b61169b8161153c565b82525050565b5f60a0820190506116b45f8301886115ca565b6116c160208301876115ca565b6116ce604083018661163d565b6116db6060830185611683565b6116e86080830184611692565b9695505050505050565b5f806040838503121561170857611707611538565b5b5f6117158582860161155b565b92505060206117268582860161155b565b9150509250929050565b5f82825260208201905092915050565b7f596f75206d75737420776167657220736f6d652045544820746f2073746172745f8201527f20612067616d652e000000000000000000000000000000000000000000000000602082015250565b5f61179a602883611730565b91506117a582611740565b604082019050919050565b5f6020820190508181035f8301526117c78161178e565b9050919050565b7f4e487b71000000000000000000000000000000000000000000000000000000005f52603260045260245ffd5b7f546869732067616d65206973206e6f74206f6e676f696e672e000000000000005f82015250565b5f61182f601983611730565b915061183a826117fb565b602082019050919050565b5f6020820190508181035f83015261185c81611823565b9050919050565b7f47616d65206861736e27742073746172746564207965742e00000000000000005f82015250565b5f611897601883611730565b91506118a282611863565b602082019050919050565b5f6020820190508181035f8301526118c48161188b565b9050919050565b7f5468697320706f736974696f6e20697320616c72656164792074616b656e2e005f82015250565b5f6118ff601f83611730565b915061190a826118cb565b602082019050919050565b5f6020820190508181035f83015261192c816118f3565b9050919050565b7f596f7520617265206e6f742070617274206f6620746869732067616d652e00005f82015250565b5f611967601e83611730565b915061197282611933565b602082019050919050565b5f6020820190508181035f8301526119948161195b565b9050919050565b7f49742773206e6f7420796f7572207475726e2e000000000000000000000000005f82015250565b5f6119cf601383611730565b91506119da8261199b565b602082019050919050565b5f6020820190508181035f8301526119fc816119c3565b9050919050565b7f546869732067616d652068617320616c726561647920656e6465642e000000005f82015250565b5f611a37601c83611730565b9150611a4282611a03565b602082019050919050565b5f6020820190508181035f830152611a6481611a2b565b9050919050565b7f47616d6520616c7265616479206861732074776f20706c61796572732e0000005f82015250565b5f611a9f601d83611730565b9150611aaa82611a6b565b602082019050919050565b5f6020820190508181035f830152611acc81611a93565b9050919050565b7f596f75206d757374206d61746368207468652062657420616d6f756e742e00005f82015250565b5f611b07601e83611730565b9150611b1282611ad3565b602082019050919050565b5f6020820190508181035f830152611b3481611afb565b9050919050565b5f60ff82169050919050565b7f4e487b71000000000000000000000000000000000000000000000000000000005f52601160045260245ffd5b5f611b7e82611b3b565b9150611b8983611b3b565b9250828202611b9781611b3b565b9150808214611ba957611ba8611b47565b5b5092915050565b5f611bba82611b3b565b9150611bc583611b3b565b9250828201905060ff811115611bde57611bdd611b47565b5b92915050565b5f611bee8261153c565b9150611bf98361153c565b9250828202611c078161153c565b91508282048414831517611c1e57611c1d611b47565b5b509291505056fea264697066735822122064291b02787c2a4cb182114ee73895108b2a831d0e81229e045ec74e4af4d6f464736f6c634300081a0033",
			"opcodes": "PUSH1 0x80 PUSH1 0x40 MSTORE CALLVALUE DUP1 ISZERO PUSH1 0xE JUMPI PUSH0 DUP1 REVERT JUMPDEST POP PUSH2 0x1C5B DUP1 PUSH2 0x1C PUSH0 CODECOPY PUSH0 RETURN INVALID PUSH1 0x80 PUSH1 0x40 MSTORE PUSH1 0x4 CALLDATASIZE LT PUSH2 0x3E JUMPI PUSH0 CALLDATALOAD PUSH1 0xE0 SHR DUP1 PUSH4 0x117A5B90 EQ PUSH2 0x42 JUMPI DUP1 PUSH4 0x7255D729 EQ PUSH2 0x82 JUMPI DUP1 PUSH4 0xDEA9456D EQ PUSH2 0x8C JUMPI DUP1 PUSH4 0xEFAA55A0 EQ PUSH2 0xB4 JUMPI JUMPDEST PUSH0 DUP1 REVERT JUMPDEST CALLVALUE DUP1 ISZERO PUSH2 0x4D JUMPI PUSH0 DUP1 REVERT JUMPDEST POP PUSH2 0x68 PUSH1 0x4 DUP1 CALLDATASIZE SUB DUP2 ADD SWAP1 PUSH2 0x63 SWAP2 SWAP1 PUSH2 0x156F JUMP JUMPDEST PUSH2 0xD0 JUMP JUMPDEST PUSH1 0x40 MLOAD PUSH2 0x79 SWAP6 SWAP5 SWAP4 SWAP3 SWAP2 SWAP1 PUSH2 0x16A1 JUMP JUMPDEST PUSH1 0x40 MLOAD DUP1 SWAP2 SUB SWAP1 RETURN JUMPDEST PUSH2 0x8A PUSH2 0x167 JUMP JUMPDEST STOP JUMPDEST CALLVALUE DUP1 ISZERO PUSH2 0x97 JUMPI PUSH0 DUP1 REVERT JUMPDEST POP PUSH2 0xB2 PUSH1 0x4 DUP1 CALLDATASIZE SUB DUP2 ADD SWAP1 PUSH2 0xAD SWAP2 SWAP1 PUSH2 0x16F2 JUMP JUMPDEST PUSH2 0x4DF JUMP JUMPDEST STOP JUMPDEST PUSH2 0xCE PUSH1 0x4 DUP1 CALLDATASIZE SUB DUP2 ADD SWAP1 PUSH2 0xC9 SWAP2 SWAP1 PUSH2 0x156F JUMP JUMPDEST PUSH2 0xA56 JUMP JUMPDEST STOP JUMPDEST PUSH0 DUP2 DUP2 SLOAD DUP2 LT PUSH2 0xDE JUMPI PUSH0 DUP1 REVERT JUMPDEST SWAP1 PUSH0 MSTORE PUSH1 0x20 PUSH0 KECCAK256 SWAP1 PUSH1 0x5 MUL ADD PUSH0 SWAP2 POP SWAP1 POP DUP1 PUSH0 ADD PUSH0 SWAP1 SLOAD SWAP1 PUSH2 0x100 EXP SWAP1 DIV PUSH20 0xFFFFFFFFFFFFFFFFFFFFFFFFFFFFFFFFFFFFFFFF AND SWAP1 DUP1 PUSH1 0x1 ADD PUSH0 SWAP1 SLOAD SWAP1 PUSH2 0x100 EXP SWAP1 DIV PUSH20 0xFFFFFFFFFFFFFFFFFFFFFFFFFFFFFFFFFFFFFFFF AND SWAP1 DUP1 PUSH1 0x1 ADD PUSH1 0x14 SWAP1 SLOAD SWAP1 PUSH2 0x100 EXP SWAP1 DIV PUSH1 0xFF AND SWAP1 DUP1 PUSH1 0x3 ADD PUSH0 SWAP1 SLOAD SWAP1 PUSH2 0x100 EXP SWAP1 DIV PUSH1 0xFF AND SWAP1 DUP1 PUSH1 0x4 ADD SLOAD SWAP1 POP DUP6 JUMP JUMPDEST PUSH0 CALLVALUE GT PUSH2 0x1A9 JUMPI PUSH1 0x40 MLOAD PUSH32 0x8C379A000000000000000000000000000000000000000000000000000000000 DUP2 MSTORE PUSH1 0x4 ADD PUSH2 0x1A0 SWAP1 PUSH2 0x17B0 JUMP JUMPDEST PUSH1 0x40 MLOAD DUP1 SWAP2 SUB SWAP1 REVERT JUMPDEST PUSH0 PUSH1 0x40 MLOAD DUP1 PUSH1 0xC0 ADD PUSH1 0x40 MSTORE DUP1 CALLER PUSH20 0xFFFFFFFFFFFFFFFFFFFFFFFFFFFFFFFFFFFFFFFF AND DUP2 MSTORE PUSH1 0x20 ADD PUSH0 PUSH20 0xFFFFFFFFFFFFFFFFFFFFFFFFFFFFFFFFFFFFFFFF AND DUP2 MSTORE PUSH1 0x20 ADD PUSH0 PUSH1 0x2 DUP2 GT ISZERO PUSH2 0x200 JUMPI PUSH2 0x1FF PUSH2 0x15D9 JUMP JUMPDEST JUMPDEST DUP2 MSTORE PUSH1 0x20 ADD PUSH1 0x40 MLOAD DUP1 PUSH2 0x120 ADD PUSH1 0x40 MSTORE DUP1 PUSH0 PUSH1 0x2 DUP2 GT ISZERO PUSH2 0x224 JUMPI PUSH2 0x223 PUSH2 0x15D9 JUMP JUMPDEST JUMPDEST PUSH1 0x2 DUP2 GT ISZERO PUSH2 0x236 JUMPI PUSH2 0x235 PUSH2 0x15D9 JUMP JUMPDEST JUMPDEST DUP2 MSTORE PUSH1 0x20 ADD PUSH0 PUSH1 0x2 DUP2 GT ISZERO PUSH2 0x24E JUMPI PUSH2 0x24D PUSH2 0x15D9 JUMP JUMPDEST JUMPDEST PUSH1 0x2 DUP2 GT ISZERO PUSH2 0x260 JUMPI PUSH2 0x25F PUSH2 0x15D9 JUMP JUMPDEST JUMPDEST DUP2 MSTORE PUSH1 0x20 ADD PUSH0 PUSH1 0x2 DUP2 GT ISZERO PUSH2 0x278 JUMPI PUSH2 0x277 PUSH2 0x15D9 JUMP JUMPDEST JUMPDEST PUSH1 0x2 DUP2 GT ISZERO PUSH2 0x28A JUMPI PUSH2 0x289 PUSH2 0x15D9 JUMP JUMPDEST JUMPDEST DUP2 MSTORE PUSH1 0x20 ADD PUSH0 PUSH1 0x2 DUP2 GT ISZERO PUSH2 0x2A2 JUMPI PUSH2 0x2A1 PUSH2 0x15D9 JUMP JUMPDEST JUMPDEST PUSH1 0x2 DUP2 GT ISZERO PUSH2 0x2B4 JUMPI PUSH2 0x2B3 PUSH2 0x15D9 JUMP JUMPDEST JUMPDEST DUP2 MSTORE PUSH1 0x20 ADD PUSH0 PUSH1 0x2 DUP2 GT ISZERO PUSH2 0x2CC JUMPI PUSH2 0x2CB PUSH2 0x15D9 JUMP JUMPDEST JUMPDEST PUSH1 0x2 DUP2 GT ISZERO PUSH2 0x2DE JUMPI PUSH2 0x2DD PUSH2 0x15D9 JUMP JUMPDEST JUMPDEST DUP2 MSTORE PUSH1 0x20 ADD PUSH0 PUSH1 0x2 DUP2 GT ISZERO PUSH2 0x2F6 JUMPI PUSH2 0x2F5 PUSH2 0x15D9 JUMP JUMPDEST JUMPDEST PUSH1 0x2 DUP2 GT ISZERO PUSH2 0x308 JUMPI PUSH2 0x307 PUSH2 0x15D9 JUMP JUMPDEST JUMPDEST DUP2 MSTORE PUSH1 0x20 ADD PUSH0 PUSH1 0x2 DUP2 GT ISZERO PUSH2 0x320 JUMPI PUSH2 0x31F PUSH2 0x15D9 JUMP JUMPDEST JUMPDEST PUSH1 0x2 DUP2 GT ISZERO PUSH2 0x332 JUMPI PUSH2 0x331 PUSH2 0x15D9 JUMP JUMPDEST JUMPDEST DUP2 MSTORE PUSH1 0x20 ADD PUSH0 PUSH1 0x2 DUP2 GT ISZERO PUSH2 0x34A JUMPI PUSH2 0x349 PUSH2 0x15D9 JUMP JUMPDEST JUMPDEST PUSH1 0x2 DUP2 GT ISZERO PUSH2 0x35C JUMPI PUSH2 0x35B PUSH2 0x15D9 JUMP JUMPDEST JUMPDEST DUP2 MSTORE PUSH1 0x20 ADD PUSH0 PUSH1 0x2 DUP2 GT ISZERO PUSH2 0x374 JUMPI PUSH2 0x373 PUSH2 0x15D9 JUMP JUMPDEST JUMPDEST PUSH1 0x2 DUP2 GT ISZERO PUSH2 0x386 JUMPI PUSH2 0x385 PUSH2 0x15D9 JUMP JUMPDEST JUMPDEST DUP2 MSTORE POP DUP2 MSTORE PUSH1 0x20 ADD PUSH0 PUSH1 0x2 DUP2 GT ISZERO PUSH2 0x3A1 JUMPI PUSH2 0x3A0 PUSH2 0x15D9 JUMP JUMPDEST JUMPDEST DUP2 MSTORE PUSH1 0x20 ADD CALLVALUE DUP2 MSTORE POP SWAP1 DUP1 PUSH1 0x1 DUP2 SLOAD ADD DUP1 DUP3 SSTORE DUP1 SWAP2 POP POP PUSH1 0x1 SWAP1 SUB SWAP1 PUSH0 MSTORE PUSH1 0x20 PUSH0 KECCAK256 SWAP1 PUSH1 0x5 MUL ADD PUSH0 SWAP1 SWAP2 SWAP1 SWAP2 SWAP1 SWAP2 POP PUSH0 DUP3 ADD MLOAD DUP2 PUSH0 ADD PUSH0 PUSH2 0x100 EXP DUP2 SLOAD DUP2 PUSH20 0xFFFFFFFFFFFFFFFFFFFFFFFFFFFFFFFFFFFFFFFF MUL NOT AND SWAP1 DUP4 PUSH20 0xFFFFFFFFFFFFFFFFFFFFFFFFFFFFFFFFFFFFFFFF AND MUL OR SWAP1 SSTORE POP PUSH1 0x20 DUP3 ADD MLOAD DUP2 PUSH1 0x1 ADD PUSH0 PUSH2 0x100 EXP DUP2 SLOAD DUP2 PUSH20 0xFFFFFFFFFFFFFFFFFFFFFFFFFFFFFFFFFFFFFFFF MUL NOT AND SWAP1 DUP4 PUSH20 0xFFFFFFFFFFFFFFFFFFFFFFFFFFFFFFFFFFFFFFFF AND MUL OR SWAP1 SSTORE POP PUSH1 0x40 DUP3 ADD MLOAD DUP2 PUSH1 0x1 ADD PUSH1 0x14 PUSH2 0x100 EXP DUP2 SLOAD DUP2 PUSH1 0xFF MUL NOT AND SWAP1 DUP4 PUSH1 0x2 DUP2 GT ISZERO PUSH2 0x485 JUMPI PUSH2 0x484 PUSH2 0x15D9 JUMP JUMPDEST JUMPDEST MUL OR SWAP1 SSTORE POP PUSH1 0x60 DUP3 ADD MLOAD DUP2 PUSH1 0x2 ADD SWAP1 PUSH1 0x9 PUSH2 0x4A1 SWAP3 SWAP2 SWAP1 PUSH2 0x1477 JUMP JUMPDEST POP PUSH1 0x80 DUP3 ADD MLOAD DUP2 PUSH1 0x3 ADD PUSH0 PUSH2 0x100 EXP DUP2 SLOAD DUP2 PUSH1 0xFF MUL NOT AND SWAP1 DUP4 PUSH1 0x2 DUP2 GT ISZERO PUSH2 0x4CC JUMPI PUSH2 0x4CB PUSH2 0x15D9 JUMP JUMPDEST JUMPDEST MUL OR SWAP1 SSTORE POP PUSH1 0xA0 DUP3 ADD MLOAD DUP2 PUSH1 0x4 ADD SSTORE POP POP JUMP JUMPDEST PUSH0 DUP1 DUP4 DUP2 SLOAD DUP2 LT PUSH2 0x4F3 JUMPI PUSH2 0x4F2 PUSH2 0x17CE JUMP JUMPDEST JUMPDEST SWAP1 PUSH0 MSTORE PUSH1 0x20 PUSH0 KECCAK256 SWAP1 PUSH1 0x5 MUL ADD SWAP1 POP PUSH0 PUSH1 0x2 DUP2 GT ISZERO PUSH2 0x514 JUMPI PUSH2 0x513 PUSH2 0x15D9 JUMP JUMPDEST JUMPDEST DUP2 PUSH1 0x3 ADD PUSH0 SWAP1 SLOAD SWAP1 PUSH2 0x100 EXP SWAP1 DIV PUSH1 0xFF AND PUSH1 0x2 DUP2 GT ISZERO PUSH2 0x537 JUMPI PUSH2 0x536 PUSH2 0x15D9 JUMP JUMPDEST JUMPDEST EQ PUSH2 0x577 JUMPI PUSH1 0x40 MLOAD PUSH32 0x8C379A000000000000000000000000000000000000000000000000000000000 DUP2 MSTORE PUSH1 0x4 ADD PUSH2 0x56E SWAP1 PUSH2 0x1845 JUMP JUMPDEST PUSH1 0x40 MLOAD DUP1 SWAP2 SUB SWAP1 REVERT JUMPDEST PUSH0 PUSH1 0x2 DUP2 GT ISZERO PUSH2 0x58A JUMPI PUSH2 0x589 PUSH2 0x15D9 JUMP JUMPDEST JUMPDEST DUP2 PUSH1 0x1 ADD PUSH1 0x14 SWAP1 SLOAD SWAP1 PUSH2 0x100 EXP SWAP1 DIV PUSH1 0xFF AND PUSH1 0x2 DUP2 GT ISZERO PUSH2 0x5AE JUMPI PUSH2 0x5AD PUSH2 0x15D9 JUMP JUMPDEST JUMPDEST SUB PUSH2 0x5EE JUMPI PUSH1 0x40 MLOAD PUSH32 0x8C379A000000000000000000000000000000000000000000000000000000000 DUP2 MSTORE PUSH1 0x4 ADD PUSH2 0x5E5 SWAP1 PUSH2 0x18AD JUMP JUMPDEST PUSH1 0x40 MLOAD DUP1 SWAP2 SUB SWAP1 REVERT JUMPDEST PUSH0 PUSH1 0x2 DUP2 GT ISZERO PUSH2 0x601 JUMPI PUSH2 0x600 PUSH2 0x15D9 JUMP JUMPDEST JUMPDEST DUP2 PUSH1 0x2 ADD DUP4 PUSH1 0x9 DUP2 LT PUSH2 0x617 JUMPI PUSH2 0x616 PUSH2 0x17CE JUMP JUMPDEST JUMPDEST PUSH1 0x20 SWAP2 DUP3 DUP3 DIV ADD SWAP2 SWAP1 MOD SWAP1 SLOAD SWAP1 PUSH2 0x100 EXP SWAP1 DIV PUSH1 0xFF AND PUSH1 0x2 DUP2 GT ISZERO PUSH2 0x63F JUMPI PUSH2 0x63E PUSH2 0x15D9 JUMP JUMPDEST JUMPDEST EQ PUSH2 0x67F JUMPI PUSH1 0x40 MLOAD PUSH32 0x8C379A000000000000000000000000000000000000000000000000000000000 DUP2 MSTORE PUSH1 0x4 ADD PUSH2 0x676 SWAP1 PUSH2 0x1915 JUMP JUMPDEST PUSH1 0x40 MLOAD DUP1 SWAP2 SUB SWAP1 REVERT JUMPDEST DUP1 PUSH0 ADD PUSH0 SWAP1 SLOAD SWAP1 PUSH2 0x100 EXP SWAP1 DIV PUSH20 0xFFFFFFFFFFFFFFFFFFFFFFFFFFFFFFFFFFFFFFFF AND PUSH20 0xFFFFFFFFFFFFFFFFFFFFFFFFFFFFFFFFFFFFFFFF AND CALLER PUSH20 0xFFFFFFFFFFFFFFFFFFFFFFFFFFFFFFFFFFFFFFFF AND EQ DUP1 PUSH2 0x729 JUMPI POP DUP1 PUSH1 0x1 ADD PUSH0 SWAP1 SLOAD SWAP1 PUSH2 0x100 EXP SWAP1 DIV PUSH20 0xFFFFFFFFFFFFFFFFFFFFFFFFFFFFFFFFFFFFFFFF AND PUSH20 0xFFFFFFFFFFFFFFFFFFFFFFFFFFFFFFFFFFFFFFFF AND CALLER PUSH20 0xFFFFFFFFFFFFFFFFFFFFFFFFFFFFFFFFFFFFFFFF AND EQ JUMPDEST PUSH2 0x768 JUMPI PUSH1 0x40 MLOAD PUSH32 0x8C379A000000000000000000000000000000000000000000000000000000000 DUP2 MSTORE PUSH1 0x4 ADD PUSH2 0x75F SWAP1 PUSH2 0x197D JUMP JUMPDEST PUSH1 0x40 MLOAD DUP1 SWAP2 SUB SWAP1 REVERT JUMPDEST DUP1 PUSH0 ADD PUSH0 SWAP1 SLOAD SWAP1 PUSH2 0x100 EXP SWAP1 DIV PUSH20 0xFFFFFFFFFFFFFFFFFFFFFFFFFFFFFFFFFFFFFFFF AND PUSH20 0xFFFFFFFFFFFFFFFFFFFFFFFFFFFFFFFFFFFFFFFF AND CALLER PUSH20 0xFFFFFFFFFFFFFFFFFFFFFFFFFFFFFFFFFFFFFFFF AND EQ DUP1 ISZERO PUSH2 0x7FA JUMPI POP PUSH1 0x1 PUSH1 0x2 DUP2 GT ISZERO PUSH2 0x7D4 JUMPI PUSH2 0x7D3 PUSH2 0x15D9 JUMP JUMPDEST JUMPDEST DUP2 PUSH1 0x1 ADD PUSH1 0x14 SWAP1 SLOAD SWAP1 PUSH2 0x100 EXP SWAP1 DIV PUSH1 0xFF AND PUSH1 0x2 DUP2 GT ISZERO PUSH2 0x7F8 JUMPI PUSH2 0x7F7 PUSH2 0x15D9 JUMP JUMPDEST JUMPDEST EQ JUMPDEST ISZERO PUSH2 0x878 JUMPI PUSH1 0x1 DUP2 PUSH1 0x2 ADD DUP4 PUSH1 0x9 DUP2 LT PUSH2 0x817 JUMPI PUSH2 0x816 PUSH2 0x17CE JUMP JUMPDEST JUMPDEST PUSH1 0x20 SWAP2 DUP3 DUP3 DIV ADD SWAP2 SWAP1 MOD PUSH2 0x100 EXP DUP2 SLOAD DUP2 PUSH1 0xFF MUL NOT AND SWAP1 DUP4 PUSH1 0x2 DUP2 GT ISZERO PUSH2 0x841 JUMPI PUSH2 0x840 PUSH2 0x15D9 JUMP JUMPDEST JUMPDEST MUL OR SWAP1 SSTORE POP PUSH1 0x2 DUP2 PUSH1 0x1 ADD PUSH1 0x14 PUSH2 0x100 EXP DUP2 SLOAD DUP2 PUSH1 0xFF MUL NOT AND SWAP1 DUP4 PUSH1 0x2 DUP2 GT ISZERO PUSH2 0x86E JUMPI PUSH2 0x86D PUSH2 0x15D9 JUMP JUMPDEST JUMPDEST MUL OR SWAP1 SSTORE POP PUSH2 0x9C4 JUMP JUMPDEST DUP1 PUSH1 0x1 ADD PUSH0 SWAP1 SLOAD SWAP1 PUSH2 0x100 EXP SWAP1 DIV PUSH20 0xFFFFFFFFFFFFFFFFFFFFFFFFFFFFFFFFFFFFFFFF AND PUSH20 0xFFFFFFFFFFFFFFFFFFFFFFFFFFFFFFFFFFFFFFFF AND CALLER PUSH20 0xFFFFFFFFFFFFFFFFFFFFFFFFFFFFFFFFFFFFFFFF AND EQ DUP1 ISZERO PUSH2 0x90A JUMPI POP PUSH1 0x2 DUP1 DUP2 GT ISZERO PUSH2 0x8E4 JUMPI PUSH2 0x8E3 PUSH2 0x15D9 JUMP JUMPDEST JUMPDEST DUP2 PUSH1 0x1 ADD PUSH1 0x14 SWAP1 SLOAD SWAP1 PUSH2 0x100 EXP SWAP1 DIV PUSH1 0xFF AND PUSH1 0x2 DUP2 GT ISZERO PUSH2 0x908 JUMPI PUSH2 0x907 PUSH2 0x15D9 JUMP JUMPDEST JUMPDEST EQ JUMPDEST ISZERO PUSH2 0x988 JUMPI PUSH1 0x2 DUP2 PUSH1 0x2 ADD DUP4 PUSH1 0x9 DUP2 LT PUSH2 0x927 JUMPI PUSH2 0x926 PUSH2 0x17CE JUMP JUMPDEST JUMPDEST PUSH1 0x20 SWAP2 DUP3 DUP3 DIV ADD SWAP2 SWAP1 MOD PUSH2 0x100 EXP DUP2 SLOAD DUP2 PUSH1 0xFF MUL NOT AND SWAP1 DUP4 PUSH1 0x2 DUP2 GT ISZERO PUSH2 0x951 JUMPI PUSH2 0x950 PUSH2 0x15D9 JUMP JUMPDEST JUMPDEST MUL OR SWAP1 SSTORE POP PUSH1 0x1 DUP2 PUSH1 0x1 ADD PUSH1 0x14 PUSH2 0x100 EXP DUP2 SLOAD DUP2 PUSH1 0xFF MUL NOT AND SWAP1 DUP4 PUSH1 0x2 DUP2 GT ISZERO PUSH2 0x97E JUMPI PUSH2 0x97D PUSH2 0x15D9 JUMP JUMPDEST JUMPDEST MUL OR SWAP1 SSTORE POP PUSH2 0x9C3 JUMP JUMPDEST PUSH1 0x40 MLOAD PUSH32 0x8C379A000000000000000000000000000000000000000000000000000000000 DUP2 MSTORE PUSH1 0x4 ADD PUSH2 0x9BA SWAP1 PUSH2 0x19E5 JUMP JUMPDEST PUSH1 0x40 MLOAD DUP1 SWAP2 SUB SWAP1 REVERT JUMPDEST JUMPDEST PUSH2 0x9CD DUP4 PUSH2 0xC38 JUMP JUMPDEST ISZERO PUSH2 0xA0C JUMPI PUSH1 0x1 DUP2 PUSH1 0x3 ADD PUSH0 PUSH2 0x100 EXP DUP2 SLOAD DUP2 PUSH1 0xFF MUL NOT AND SWAP1 DUP4 PUSH1 0x2 DUP2 GT ISZERO PUSH2 0x9F9 JUMPI PUSH2 0x9F8 PUSH2 0x15D9 JUMP JUMPDEST JUMPDEST MUL OR SWAP1 SSTORE POP PUSH2 0xA07 DUP4 PUSH2 0x11C8 JUMP JUMPDEST PUSH2 0xA51 JUMP JUMPDEST PUSH2 0xA15 DUP4 PUSH2 0x12CF JUMP JUMPDEST ISZERO PUSH2 0xA50 JUMPI PUSH1 0x2 DUP2 PUSH1 0x3 ADD PUSH0 PUSH2 0x100 EXP DUP2 SLOAD DUP2 PUSH1 0xFF MUL NOT AND SWAP1 DUP4 PUSH1 0x2 DUP2 GT ISZERO PUSH2 0xA41 JUMPI PUSH2 0xA40 PUSH2 0x15D9 JUMP JUMPDEST JUMPDEST MUL OR SWAP1 SSTORE POP PUSH2 0xA4F DUP4 PUSH2 0x137C JUMP JUMPDEST JUMPDEST JUMPDEST POP POP POP JUMP JUMPDEST PUSH0 DUP1 DUP3 DUP2 SLOAD DUP2 LT PUSH2 0xA6A JUMPI PUSH2 0xA69 PUSH2 0x17CE JUMP JUMPDEST JUMPDEST SWAP1 PUSH0 MSTORE PUSH1 0x20 PUSH0 KECCAK256 SWAP1 PUSH1 0x5 MUL ADD SWAP1 POP PUSH0 PUSH1 0x2 DUP2 GT ISZERO PUSH2 0xA8B JUMPI PUSH2 0xA8A PUSH2 0x15D9 JUMP JUMPDEST JUMPDEST DUP2 PUSH1 0x3 ADD PUSH0 SWAP1 SLOAD SWAP1 PUSH2 0x100 EXP SWAP1 DIV PUSH1 0xFF AND PUSH1 0x2 DUP2 GT ISZERO PUSH2 0xAAE JUMPI PUSH2 0xAAD PUSH2 0x15D9 JUMP JUMPDEST JUMPDEST EQ PUSH2 0xAEE JUMPI PUSH1 0x40 MLOAD PUSH32 0x8C379A000000000000000000000000000000000000000000000000000000000 DUP2 MSTORE PUSH1 0x4 ADD PUSH2 0xAE5 SWAP1 PUSH2 0x1A4D JUMP JUMPDEST PUSH1 0x40 MLOAD DUP1 SWAP2 SUB SWAP1 REVERT JUMPDEST PUSH0 PUSH20 0xFFFFFFFFFFFFFFFFFFFFFFFFFFFFFFFFFFFFFFFF AND DUP2 PUSH1 0x1 ADD PUSH0 SWAP1 SLOAD SWAP1 PUSH2 0x100 EXP SWAP1 DIV PUSH20 0xFFFFFFFFFFFFFFFFFFFFFFFFFFFFFFFFFFFFFFFF AND PUSH20 0xFFFFFFFFFFFFFFFFFFFFFFFFFFFFFFFFFFFFFFFF AND EQ PUSH2 0xB7F JUMPI PUSH1 0x40 MLOAD PUSH32 0x8C379A000000000000000000000000000000000000000000000000000000000 DUP2 MSTORE PUSH1 0x4 ADD PUSH2 0xB76 SWAP1 PUSH2 0x1AB5 JUMP JUMPDEST PUSH1 0x40 MLOAD DUP1 SWAP2 SUB SWAP1 REVERT JUMPDEST DUP1 PUSH1 0x4 ADD SLOAD CALLVALUE EQ PUSH2 0xBC5 JUMPI PUSH1 0x40 MLOAD PUSH32 0x8C379A000000000000000000000000000000000000000000000000000000000 DUP2 MSTORE PUSH1 0x4 ADD PUSH2 0xBBC SWAP1 PUSH2 0x1B1D JUMP JUMPDEST PUSH1 0x40 MLOAD DUP1 SWAP2 SUB SWAP1 REVERT JUMPDEST CALLER DUP2 PUSH1 0x1 ADD PUSH0 PUSH2 0x100 EXP DUP2 SLOAD DUP2 PUSH20 0xFFFFFFFFFFFFFFFFFFFFFFFFFFFFFFFFFFFFFFFF MUL NOT AND SWAP1 DUP4 PUSH20 0xFFFFFFFFFFFFFFFFFFFFFFFFFFFFFFFFFFFFFFFF AND MUL OR SWAP1 SSTORE POP PUSH1 0x1 DUP2 PUSH1 0x1 ADD PUSH1 0x14 PUSH2 0x100 EXP DUP2 SLOAD DUP2 PUSH1 0xFF MUL NOT AND SWAP1 DUP4 PUSH1 0x2 DUP2 GT ISZERO PUSH2 0xC2F JUMPI PUSH2 0xC2E PUSH2 0x15D9 JUMP JUMPDEST JUMPDEST MUL OR SWAP1 SSTORE POP POP POP JUMP JUMPDEST PUSH0 DUP1 PUSH0 DUP4 DUP2 SLOAD DUP2 LT PUSH2 0xC4D JUMPI PUSH2 0xC4C PUSH2 0x17CE JUMP JUMPDEST JUMPDEST SWAP1 PUSH0 MSTORE PUSH1 0x20 PUSH0 KECCAK256 SWAP1 PUSH1 0x5 MUL ADD SWAP1 POP PUSH0 DUP2 PUSH1 0x2 ADD PUSH1 0x9 DUP1 PUSH1 0x20 MUL PUSH1 0x40 MLOAD SWAP1 DUP2 ADD PUSH1 0x40 MSTORE DUP1 SWAP3 SWAP2 SWAP1 DUP3 PUSH1 0x9 DUP1 ISZERO PUSH2 0xCCA JUMPI PUSH1 0x20 MUL DUP3 ADD SWAP2 PUSH0 SWAP1 JUMPDEST DUP3 DUP3 SWAP1 SLOAD SWAP1 PUSH2 0x100 EXP SWAP1 DIV PUSH1 0xFF AND PUSH1 0x2 DUP2 GT ISZERO PUSH2 0xCA5 JUMPI PUSH2 0xCA4 PUSH2 0x15D9 JUMP JUMPDEST JUMPDEST DUP2 MSTORE PUSH1 0x20 ADD SWAP1 PUSH1 0x1 ADD SWAP1 PUSH1 0x20 DUP3 PUSH0 ADD DIV SWAP3 DUP4 ADD SWAP3 PUSH1 0x1 SUB DUP3 MUL SWAP2 POP DUP1 DUP5 GT PUSH2 0xC85 JUMPI SWAP1 POP JUMPDEST POP POP POP POP POP SWAP1 POP PUSH0 JUMPDEST PUSH1 0x3 DUP2 PUSH1 0xFF AND LT ISZERO PUSH2 0xFA2 JUMPI PUSH0 PUSH1 0x2 DUP2 GT ISZERO PUSH2 0xCF2 JUMPI PUSH2 0xCF1 PUSH2 0x15D9 JUMP JUMPDEST JUMPDEST DUP3 PUSH1 0x3 DUP4 PUSH2 0xD00 SWAP2 SWAP1 PUSH2 0x1B74 JUMP JUMPDEST PUSH1 0xFF AND PUSH1 0x9 DUP2 LT PUSH2 0xD14 JUMPI PUSH2 0xD13 PUSH2 0x17CE JUMP JUMPDEST JUMPDEST PUSH1 0x20 MUL ADD MLOAD PUSH1 0x2 DUP2 GT ISZERO PUSH2 0xD2B JUMPI PUSH2 0xD2A PUSH2 0x15D9 JUMP JUMPDEST JUMPDEST EQ ISZERO DUP1 ISZERO PUSH2 0xDB4 JUMPI POP DUP2 PUSH1 0x1 PUSH1 0x3 DUP4 PUSH2 0xD44 SWAP2 SWAP1 PUSH2 0x1B74 JUMP JUMPDEST PUSH2 0xD4E SWAP2 SWAP1 PUSH2 0x1BB0 JUMP JUMPDEST PUSH1 0xFF AND PUSH1 0x9 DUP2 LT PUSH2 0xD62 JUMPI PUSH2 0xD61 PUSH2 0x17CE JUMP JUMPDEST JUMPDEST PUSH1 0x20 MUL ADD MLOAD PUSH1 0x2 DUP2 GT ISZERO PUSH2 0xD79 JUMPI PUSH2 0xD78 PUSH2 0x15D9 JUMP JUMPDEST JUMPDEST DUP3 PUSH1 0x3 DUP4 PUSH2 0xD87 SWAP2 SWAP1 PUSH2 0x1B74 JUMP JUMPDEST PUSH1 0xFF AND PUSH1 0x9 DUP2 LT PUSH2 0xD9B JUMPI PUSH2 0xD9A PUSH2 0x17CE JUMP JUMPDEST JUMPDEST PUSH1 0x20 MUL ADD MLOAD PUSH1 0x2 DUP2 GT ISZERO PUSH2 0xDB2 JUMPI PUSH2 0xDB1 PUSH2 0x15D9 JUMP JUMPDEST JUMPDEST EQ JUMPDEST DUP1 ISZERO PUSH2 0xE47 JUMPI POP DUP2 PUSH1 0x2 PUSH1 0x3 DUP4 PUSH2 0xDCB SWAP2 SWAP1 PUSH2 0x1B74 JUMP JUMPDEST PUSH2 0xDD5 SWAP2 SWAP1 PUSH2 0x1BB0 JUMP JUMPDEST PUSH1 0xFF AND PUSH1 0x9 DUP2 LT PUSH2 0xDE9 JUMPI PUSH2 0xDE8 PUSH2 0x17CE JUMP JUMPDEST JUMPDEST PUSH1 0x20 MUL ADD MLOAD PUSH1 0x2 DUP2 GT ISZERO PUSH2 0xE00 JUMPI PUSH2 0xDFF PUSH2 0x15D9 JUMP JUMPDEST JUMPDEST DUP3 PUSH1 0x1 PUSH1 0x3 DUP5 PUSH2 0xE10 SWAP2 SWAP1 PUSH2 0x1B74 JUMP JUMPDEST PUSH2 0xE1A SWAP2 SWAP1 PUSH2 0x1BB0 JUMP JUMPDEST PUSH1 0xFF AND PUSH1 0x9 DUP2 LT PUSH2 0xE2E JUMPI PUSH2 0xE2D PUSH2 0x17CE JUMP JUMPDEST JUMPDEST PUSH1 0x20 MUL ADD MLOAD PUSH1 0x2 DUP2 GT ISZERO PUSH2 0xE45 JUMPI PUSH2 0xE44 PUSH2 0x15D9 JUMP JUMPDEST JUMPDEST EQ JUMPDEST ISZERO PUSH2 0xE58 JUMPI PUSH1 0x1 SWAP4 POP POP POP POP PUSH2 0x11C3 JUMP JUMPDEST PUSH0 PUSH1 0x2 DUP2 GT ISZERO PUSH2 0xE6B JUMPI PUSH2 0xE6A PUSH2 0x15D9 JUMP JUMPDEST JUMPDEST DUP3 DUP3 PUSH1 0xFF AND PUSH1 0x9 DUP2 LT PUSH2 0xE81 JUMPI PUSH2 0xE80 PUSH2 0x17CE JUMP JUMPDEST JUMPDEST PUSH1 0x20 MUL ADD MLOAD PUSH1 0x2 DUP2 GT ISZERO PUSH2 0xE98 JUMPI PUSH2 0xE97 PUSH2 0x15D9 JUMP JUMPDEST JUMPDEST EQ ISZERO DUP1 ISZERO PUSH2 0xF09 JUMPI POP DUP2 PUSH1 0x3 DUP3 PUSH2 0xEAF SWAP2 SWAP1 PUSH2 0x1BB0 JUMP JUMPDEST PUSH1 0xFF AND PUSH1 0x9 DUP2 LT PUSH2 0xEC3 JUMPI PUSH2 0xEC2 PUSH2 0x17CE JUMP JUMPDEST JUMPDEST PUSH1 0x20 MUL ADD MLOAD PUSH1 0x2 DUP2 GT ISZERO PUSH2 0xEDA JUMPI PUSH2 0xED9 PUSH2 0x15D9 JUMP JUMPDEST JUMPDEST DUP3 DUP3 PUSH1 0xFF AND PUSH1 0x9 DUP2 LT PUSH2 0xEF0 JUMPI PUSH2 0xEEF PUSH2 0x17CE JUMP JUMPDEST JUMPDEST PUSH1 0x20 MUL ADD MLOAD PUSH1 0x2 DUP2 GT ISZERO PUSH2 0xF07 JUMPI PUSH2 0xF06 PUSH2 0x15D9 JUMP JUMPDEST JUMPDEST EQ JUMPDEST DUP1 ISZERO PUSH2 0xF84 JUMPI POP DUP2 PUSH1 0x6 DUP3 PUSH2 0xF1E SWAP2 SWAP1 PUSH2 0x1BB0 JUMP JUMPDEST PUSH1 0xFF AND PUSH1 0x9 DUP2 LT PUSH2 0xF32 JUMPI PUSH2 0xF31 PUSH2 0x17CE JUMP JUMPDEST JUMPDEST PUSH1 0x20 MUL ADD MLOAD PUSH1 0x2 DUP2 GT ISZERO PUSH2 0xF49 JUMPI PUSH2 0xF48 PUSH2 0x15D9 JUMP JUMPDEST JUMPDEST DUP3 PUSH1 0x3 DUP4 PUSH2 0xF57 SWAP2 SWAP1 PUSH2 0x1BB0 JUMP JUMPDEST PUSH1 0xFF AND PUSH1 0x9 DUP2 LT PUSH2 0xF6B JUMPI PUSH2 0xF6A PUSH2 0x17CE JUMP JUMPDEST JUMPDEST PUSH1 0x20 MUL ADD MLOAD PUSH1 0x2 DUP2 GT ISZERO PUSH2 0xF82 JUMPI PUSH2 0xF81 PUSH2 0x15D9 JUMP JUMPDEST JUMPDEST EQ JUMPDEST ISZERO PUSH2 0xF95 JUMPI PUSH1 0x1 SWAP4 POP POP POP POP PUSH2 0x11C3 JUMP JUMPDEST DUP1 DUP1 PUSH1 0x1 ADD SWAP2 POP POP PUSH2 0xCD3 JUMP JUMPDEST POP PUSH0 PUSH1 0x2 DUP2 GT ISZERO PUSH2 0xFB6 JUMPI PUSH2 0xFB5 PUSH2 0x15D9 JUMP JUMPDEST JUMPDEST DUP2 PUSH0 PUSH1 0x9 DUP2 LT PUSH2 0xFC9 JUMPI PUSH2 0xFC8 PUSH2 0x17CE JUMP JUMPDEST JUMPDEST PUSH1 0x20 MUL ADD MLOAD PUSH1 0x2 DUP2 GT ISZERO PUSH2 0xFE0 JUMPI PUSH2 0xFDF PUSH2 0x15D9 JUMP JUMPDEST JUMPDEST EQ ISZERO DUP1 ISZERO PUSH2 0x1040 JUMPI POP DUP1 PUSH1 0x4 PUSH1 0x9 DUP2 LT PUSH2 0xFFD JUMPI PUSH2 0xFFC PUSH2 0x17CE JUMP JUMPDEST JUMPDEST PUSH1 0x20 MUL ADD MLOAD PUSH1 0x2 DUP2 GT ISZERO PUSH2 0x1014 JUMPI PUSH2 0x1013 PUSH2 0x15D9 JUMP JUMPDEST JUMPDEST DUP2 PUSH0 PUSH1 0x9 DUP2 LT PUSH2 0x1027 JUMPI PUSH2 0x1026 PUSH2 0x17CE JUMP JUMPDEST JUMPDEST PUSH1 0x20 MUL ADD MLOAD PUSH1 0x2 DUP2 GT ISZERO PUSH2 0x103E JUMPI PUSH2 0x103D PUSH2 0x15D9 JUMP JUMPDEST JUMPDEST EQ JUMPDEST DUP1 ISZERO PUSH2 0x109F JUMPI POP DUP1 PUSH1 0x8 PUSH1 0x9 DUP2 LT PUSH2 0x105B JUMPI PUSH2 0x105A PUSH2 0x17CE JUMP JUMPDEST JUMPDEST PUSH1 0x20 MUL ADD MLOAD PUSH1 0x2 DUP2 GT ISZERO PUSH2 0x1072 JUMPI PUSH2 0x1071 PUSH2 0x15D9 JUMP JUMPDEST JUMPDEST DUP2 PUSH1 0x4 PUSH1 0x9 DUP2 LT PUSH2 0x1086 JUMPI PUSH2 0x1085 PUSH2 0x17CE JUMP JUMPDEST JUMPDEST PUSH1 0x20 MUL ADD MLOAD PUSH1 0x2 DUP2 GT ISZERO PUSH2 0x109D JUMPI PUSH2 0x109C PUSH2 0x15D9 JUMP JUMPDEST JUMPDEST EQ JUMPDEST ISZERO PUSH2 0x10AF JUMPI PUSH1 0x1 SWAP3 POP POP POP PUSH2 0x11C3 JUMP JUMPDEST PUSH0 PUSH1 0x2 DUP2 GT ISZERO PUSH2 0x10C2 JUMPI PUSH2 0x10C1 PUSH2 0x15D9 JUMP JUMPDEST JUMPDEST DUP2 PUSH1 0x2 PUSH1 0x9 DUP2 LT PUSH2 0x10D6 JUMPI PUSH2 0x10D5 PUSH2 0x17CE JUMP JUMPDEST JUMPDEST PUSH1 0x20 MUL ADD MLOAD PUSH1 0x2 DUP2 GT ISZERO PUSH2 0x10ED JUMPI PUSH2 0x10EC PUSH2 0x15D9 JUMP JUMPDEST JUMPDEST EQ ISZERO DUP1 ISZERO PUSH2 0x114E JUMPI POP DUP1 PUSH1 0x4 PUSH1 0x9 DUP2 LT PUSH2 0x110A JUMPI PUSH2 0x1109 PUSH2 0x17CE JUMP JUMPDEST JUMPDEST PUSH1 0x20 MUL ADD MLOAD PUSH1 0x2 DUP2 GT ISZERO PUSH2 0x1121 JUMPI PUSH2 0x1120 PUSH2 0x15D9 JUMP JUMPDEST JUMPDEST DUP2 PUSH1 0x2 PUSH1 0x9 DUP2 LT PUSH2 0x1135 JUMPI PUSH2 0x1134 PUSH2 0x17CE JUMP JUMPDEST JUMPDEST PUSH1 0x20 MUL ADD MLOAD PUSH1 0x2 DUP2 GT ISZERO PUSH2 0x114C JUMPI PUSH2 0x114B PUSH2 0x15D9 JUMP JUMPDEST JUMPDEST EQ JUMPDEST DUP1 ISZERO PUSH2 0x11AD JUMPI POP DUP1 PUSH1 0x6 PUSH1 0x9 DUP2 LT PUSH2 0x1169 JUMPI PUSH2 0x1168 PUSH2 0x17CE JUMP JUMPDEST JUMPDEST PUSH1 0x20 MUL ADD MLOAD PUSH1 0x2 DUP2 GT ISZERO PUSH2 0x1180 JUMPI PUSH2 0x117F PUSH2 0x15D9 JUMP JUMPDEST JUMPDEST DUP2 PUSH1 0x4 PUSH1 0x9 DUP2 LT PUSH2 0x1194 JUMPI PUSH2 0x1193 PUSH2 0x17CE JUMP JUMPDEST JUMPDEST PUSH1 0x20 MUL ADD MLOAD PUSH1 0x2 DUP2 GT ISZERO PUSH2 0x11AB JUMPI PUSH2 0x11AA PUSH2 0x15D9 JUMP JUMPDEST JUMPDEST EQ JUMPDEST ISZERO PUSH2 0x11BD JUMPI PUSH1 0x1 SWAP3 POP POP POP PUSH2 0x11C3 JUMP JUMPDEST PUSH0 SWAP3 POP POP POP JUMPDEST SWAP2 SWAP1 POP JUMP JUMPDEST PUSH0 DUP1 DUP3 DUP2 SLOAD DUP2 LT PUSH2 0x11DC JUMPI PUSH2 0x11DB PUSH2 0x17CE JUMP JUMPDEST JUMPDEST SWAP1 PUSH0 MSTORE PUSH1 0x20 PUSH0 KECCAK256 SWAP1 PUSH1 0x5 MUL ADD SWAP1 POP PUSH0 PUSH1 0x2 DUP1 DUP2 GT ISZERO PUSH2 0x11FE JUMPI PUSH2 0x11FD PUSH2 0x15D9 JUMP JUMPDEST JUMPDEST DUP3 PUSH1 0x1 ADD PUSH1 0x14 SWAP1 SLOAD SWAP1 PUSH2 0x100 EXP SWAP1 DIV PUSH1 0xFF AND PUSH1 0x2 DUP2 GT ISZERO PUSH2 0x1222 JUMPI PUSH2 0x1221 PUSH2 0x15D9 JUMP JUMPDEST JUMPDEST EQ PUSH2 0x1250 JUMPI DUP2 PUSH1 0x1 ADD PUSH0 SWAP1 SLOAD SWAP1 PUSH2 0x100 EXP SWAP1 DIV PUSH20 0xFFFFFFFFFFFFFFFFFFFFFFFFFFFFFFFFFFFFFFFF AND PUSH2 0x1274 JUMP JUMPDEST DUP2 PUSH0 ADD PUSH0 SWAP1 SLOAD SWAP1 PUSH2 0x100 EXP SWAP1 DIV PUSH20 0xFFFFFFFFFFFFFFFFFFFFFFFFFFFFFFFFFFFFFFFF AND JUMPDEST SWAP1 POP DUP1 PUSH20 0xFFFFFFFFFFFFFFFFFFFFFFFFFFFFFFFFFFFFFFFF AND PUSH2 0x8FC PUSH1 0x2 DUP5 PUSH1 0x4 ADD SLOAD PUSH2 0x12A1 SWAP2 SWAP1 PUSH2 0x1BE4 JUMP JUMPDEST SWAP1 DUP2 ISZERO MUL SWAP1 PUSH1 0x40 MLOAD PUSH0 PUSH1 0x40 MLOAD DUP1 DUP4 SUB DUP2 DUP6 DUP9 DUP9 CALL SWAP4 POP POP POP POP ISZERO DUP1 ISZERO PUSH2 0x12C9 JUMPI RETURNDATASIZE PUSH0 DUP1 RETURNDATACOPY RETURNDATASIZE PUSH0 REVERT JUMPDEST POP POP POP POP JUMP JUMPDEST PUSH0 DUP1 PUSH0 DUP4 DUP2 SLOAD DUP2 LT PUSH2 0x12E4 JUMPI PUSH2 0x12E3 PUSH2 0x17CE JUMP JUMPDEST JUMPDEST SWAP1 PUSH0 MSTORE PUSH1 0x20 PUSH0 KECCAK256 SWAP1 PUSH1 0x5 MUL ADD SWAP1 POP PUSH0 JUMPDEST PUSH1 0x9 DUP2 PUSH1 0xFF AND LT ISZERO PUSH2 0x1370 JUMPI PUSH0 PUSH1 0x2 DUP2 GT ISZERO PUSH2 0x1313 JUMPI PUSH2 0x1312 PUSH2 0x15D9 JUMP JUMPDEST JUMPDEST DUP3 PUSH1 0x2 ADD DUP3 PUSH1 0xFF AND PUSH1 0x9 DUP2 LT PUSH2 0x132C JUMPI PUSH2 0x132B PUSH2 0x17CE JUMP JUMPDEST JUMPDEST PUSH1 0x20 SWAP2 DUP3 DUP3 DIV ADD SWAP2 SWAP1 MOD SWAP1 SLOAD SWAP1 PUSH2 0x100 EXP SWAP1 DIV PUSH1 0xFF AND PUSH1 0x2 DUP2 GT ISZERO PUSH2 0x1354 JUMPI PUSH2 0x1353 PUSH2 0x15D9 JUMP JUMPDEST JUMPDEST SUB PUSH2 0x1363 JUMPI PUSH0 SWAP3 POP POP POP PUSH2 0x1377 JUMP JUMPDEST DUP1 DUP1 PUSH1 0x1 ADD SWAP2 POP POP PUSH2 0x12F4 JUMP JUMPDEST POP PUSH1 0x1 SWAP2 POP POP JUMPDEST SWAP2 SWAP1 POP JUMP JUMPDEST PUSH0 DUP1 DUP3 DUP2 SLOAD DUP2 LT PUSH2 0x1390 JUMPI PUSH2 0x138F PUSH2 0x17CE JUMP JUMPDEST JUMPDEST SWAP1 PUSH0 MSTORE PUSH1 0x20 PUSH0 KECCAK256 SWAP1 PUSH1 0x5 MUL ADD SWAP1 POP DUP1 PUSH0 ADD PUSH0 SWAP1 SLOAD SWAP1 PUSH2 0x100 EXP SWAP1 DIV PUSH20 0xFFFFFFFFFFFFFFFFFFFFFFFFFFFFFFFFFFFFFFFF AND PUSH20 0xFFFFFFFFFFFFFFFFFFFFFFFFFFFFFFFFFFFFFFFF AND PUSH2 0x8FC DUP3 PUSH1 0x4 ADD SLOAD SWAP1 DUP2 ISZERO MUL SWAP1 PUSH1 0x40 MLOAD PUSH0 PUSH1 0x40 MLOAD DUP1 DUP4 SUB DUP2 DUP6 DUP9 DUP9 CALL SWAP4 POP POP POP POP ISZERO DUP1 ISZERO PUSH2 0x1407 JUMPI RETURNDATASIZE PUSH0 DUP1 RETURNDATACOPY RETURNDATASIZE PUSH0 REVERT JUMPDEST POP DUP1 PUSH1 0x1 ADD PUSH0 SWAP1 SLOAD SWAP1 PUSH2 0x100 EXP SWAP1 DIV PUSH20 0xFFFFFFFFFFFFFFFFFFFFFFFFFFFFFFFFFFFFFFFF AND PUSH20 0xFFFFFFFFFFFFFFFFFFFFFFFFFFFFFFFFFFFFFFFF AND PUSH2 0x8FC DUP3 PUSH1 0x4 ADD SLOAD SWAP1 DUP2 ISZERO MUL SWAP1 PUSH1 0x40 MLOAD PUSH0 PUSH1 0x40 MLOAD DUP1 DUP4 SUB DUP2 DUP6 DUP9 DUP9 CALL SWAP4 POP POP POP POP ISZERO DUP1 ISZERO PUSH2 0x1472 JUMPI RETURNDATASIZE PUSH0 DUP1 RETURNDATACOPY RETURNDATASIZE PUSH0 REVERT JUMPDEST POP POP POP JUMP JUMPDEST DUP3 PUSH1 0x9 PUSH1 0x1F ADD PUSH1 0x20 SWAP1 DIV DUP2 ADD SWAP3 DUP3 ISZERO PUSH2 0x150C JUMPI SWAP2 PUSH1 0x20 MUL DUP3 ADD PUSH0 JUMPDEST DUP4 DUP3 GT ISZERO PUSH2 0x14DE JUMPI DUP4 MLOAD DUP4 DUP3 PUSH2 0x100 EXP DUP2 SLOAD DUP2 PUSH1 0xFF MUL NOT AND SWAP1 DUP4 PUSH1 0x2 DUP2 GT ISZERO PUSH2 0x14BE JUMPI PUSH2 0x14BD PUSH2 0x15D9 JUMP JUMPDEST JUMPDEST MUL OR SWAP1 SSTORE POP SWAP3 PUSH1 0x20 ADD SWAP3 PUSH1 0x1 ADD PUSH1 0x20 DUP2 PUSH0 ADD DIV SWAP3 DUP4 ADD SWAP3 PUSH1 0x1 SUB MUL PUSH2 0x1492 JUMP JUMPDEST DUP1 ISZERO PUSH2 0x150A JUMPI DUP3 DUP2 PUSH2 0x100 EXP DUP2 SLOAD SWAP1 PUSH1 0xFF MUL NOT AND SWAP1 SSTORE PUSH1 0x1 ADD PUSH1 0x20 DUP2 PUSH0 ADD DIV SWAP3 DUP4 ADD SWAP3 PUSH1 0x1 SUB MUL PUSH2 0x14DE JUMP JUMPDEST POP JUMPDEST POP SWAP1 POP PUSH2 0x1519 SWAP2 SWAP1 PUSH2 0x151D JUMP JUMPDEST POP SWAP1 JUMP JUMPDEST JUMPDEST DUP1 DUP3 GT ISZERO PUSH2 0x1534 JUMPI PUSH0 DUP2 PUSH0 SWAP1 SSTORE POP PUSH1 0x1 ADD PUSH2 0x151E JUMP JUMPDEST POP SWAP1 JUMP JUMPDEST PUSH0 DUP1 REVERT JUMPDEST PUSH0 DUP2 SWAP1 POP SWAP2 SWAP1 POP JUMP JUMPDEST PUSH2 0x154E DUP2 PUSH2 0x153C JUMP JUMPDEST DUP2 EQ PUSH2 0x1558 JUMPI PUSH0 DUP1 REVERT JUMPDEST POP JUMP JUMPDEST PUSH0 DUP2 CALLDATALOAD SWAP1 POP PUSH2 0x1569 DUP2 PUSH2 0x1545 JUMP JUMPDEST SWAP3 SWAP2 POP POP JUMP JUMPDEST PUSH0 PUSH1 0x20 DUP3 DUP5 SUB SLT ISZERO PUSH2 0x1584 JUMPI PUSH2 0x1583 PUSH2 0x1538 JUMP JUMPDEST JUMPDEST PUSH0 PUSH2 0x1591 DUP5 DUP3 DUP6 ADD PUSH2 0x155B JUMP JUMPDEST SWAP2 POP POP SWAP3 SWAP2 POP POP JUMP JUMPDEST PUSH0 PUSH20 0xFFFFFFFFFFFFFFFFFFFFFFFFFFFFFFFFFFFFFFFF DUP3 AND SWAP1 POP SWAP2 SWAP1 POP JUMP JUMPDEST PUSH0 PUSH2 0x15C3 DUP3 PUSH2 0x159A JUMP JUMPDEST SWAP1 POP SWAP2 SWAP1 POP JUMP JUMPDEST PUSH2 0x15D3 DUP2 PUSH2 0x15B9 JUMP JUMPDEST DUP3 MSTORE POP POP JUMP JUMPDEST PUSH32 0x4E487B7100000000000000000000000000000000000000000000000000000000 PUSH0 MSTORE PUSH1 0x21 PUSH1 0x4 MSTORE PUSH1 0x24 PUSH0 REVERT JUMPDEST PUSH1 0x3 DUP2 LT PUSH2 0x1617 JUMPI PUSH2 0x1616 PUSH2 0x15D9 JUMP JUMPDEST JUMPDEST POP JUMP JUMPDEST PUSH0 DUP2 SWAP1 POP PUSH2 0x1627 DUP3 PUSH2 0x1606 JUMP JUMPDEST SWAP2 SWAP1 POP JUMP JUMPDEST PUSH0 PUSH2 0x1636 DUP3 PUSH2 0x161A JUMP JUMPDEST SWAP1 POP SWAP2 SWAP1 POP JUMP JUMPDEST PUSH2 0x1646 DUP2 PUSH2 0x162C JUMP JUMPDEST DUP3 MSTORE POP POP JUMP JUMPDEST PUSH1 0x3 DUP2 LT PUSH2 0x165D JUMPI PUSH2 0x165C PUSH2 0x15D9 JUMP JUMPDEST JUMPDEST POP JUMP JUMPDEST PUSH0 DUP2 SWAP1 POP PUSH2 0x166D DUP3 PUSH2 0x164C JUMP JUMPDEST SWAP2 SWAP1 POP JUMP JUMPDEST PUSH0 PUSH2 0x167C DUP3 PUSH2 0x1660 JUMP JUMPDEST SWAP1 POP SWAP2 SWAP1 POP JUMP JUMPDEST PUSH2 0x168C DUP2 PUSH2 0x1672 JUMP JUMPDEST DUP3 MSTORE POP POP JUMP JUMPDEST PUSH2 0x169B DUP2 PUSH2 0x153C JUMP JUMPDEST DUP3 MSTORE POP POP JUMP JUMPDEST PUSH0 PUSH1 0xA0 DUP3 ADD SWAP1 POP PUSH2 0x16B4 PUSH0 DUP4 ADD DUP9 PUSH2 0x15CA JUMP JUMPDEST PUSH2 0x16C1 PUSH1 0x20 DUP4 ADD DUP8 PUSH2 0x15CA JUMP JUMPDEST PUSH2 0x16CE PUSH1 0x40 DUP4 ADD DUP7 PUSH2 0x163D JUMP JUMPDEST PUSH2 0x16DB PUSH1 0x60 DUP4 ADD DUP6 PUSH2 0x1683 JUMP JUMPDEST PUSH2 0x16E8 PUSH1 0x80 DUP4 ADD DUP5 PUSH2 0x1692 JUMP JUMPDEST SWAP7 SWAP6 POP POP POP POP POP POP JUMP JUMPDEST PUSH0 DUP1 PUSH1 0x40 DUP4 DUP6 SUB SLT ISZERO PUSH2 0x1708 JUMPI PUSH2 0x1707 PUSH2 0x1538 JUMP JUMPDEST JUMPDEST PUSH0 PUSH2 0x1715 DUP6 DUP3 DUP7 ADD PUSH2 0x155B JUMP JUMPDEST SWAP3 POP POP PUSH1 0x20 PUSH2 0x1726 DUP6 DUP3 DUP7 ADD PUSH2 0x155B JUMP JUMPDEST SWAP2 POP POP SWAP3 POP SWAP3 SWAP1 POP JUMP JUMPDEST PUSH0 DUP3 DUP3 MSTORE PUSH1 0x20 DUP3 ADD SWAP1 POP SWAP3 SWAP2 POP POP JUMP JUMPDEST PUSH32 0x596F75206D75737420776167657220736F6D652045544820746F207374617274 PUSH0 DUP3 ADD MSTORE PUSH32 0x20612067616D652E000000000000000000000000000000000000000000000000 PUSH1 0x20 DUP3 ADD MSTORE POP JUMP JUMPDEST PUSH0 PUSH2 0x179A PUSH1 0x28 DUP4 PUSH2 0x1730 JUMP JUMPDEST SWAP2 POP PUSH2 0x17A5 DUP3 PUSH2 0x1740 JUMP JUMPDEST PUSH1 0x40 DUP3 ADD SWAP1 POP SWAP2 SWAP1 POP JUMP JUMPDEST PUSH0 PUSH1 0x20 DUP3 ADD SWAP1 POP DUP2 DUP2 SUB PUSH0 DUP4 ADD MSTORE PUSH2 0x17C7 DUP2 PUSH2 0x178E JUMP JUMPDEST SWAP1 POP SWAP2 SWAP1 POP JUMP JUMPDEST PUSH32 0x4E487B7100000000000000000000000000000000000000000000000000000000 PUSH0 MSTORE PUSH1 0x32 PUSH1 0x4 MSTORE PUSH1 0x24 PUSH0 REVERT JUMPDEST PUSH32 0x546869732067616D65206973206E6F74206F6E676F696E672E00000000000000 PUSH0 DUP3 ADD MSTORE POP JUMP JUMPDEST PUSH0 PUSH2 0x182F PUSH1 0x19 DUP4 PUSH2 0x1730 JUMP JUMPDEST SWAP2 POP PUSH2 0x183A DUP3 PUSH2 0x17FB JUMP JUMPDEST PUSH1 0x20 DUP3 ADD SWAP1 POP SWAP2 SWAP1 POP JUMP JUMPDEST PUSH0 PUSH1 0x20 DUP3 ADD SWAP1 POP DUP2 DUP2 SUB PUSH0 DUP4 ADD MSTORE PUSH2 0x185C DUP2 PUSH2 0x1823 JUMP JUMPDEST SWAP1 POP SWAP2 SWAP1 POP JUMP JUMPDEST PUSH32 0x47616D65206861736E27742073746172746564207965742E0000000000000000 PUSH0 DUP3 ADD MSTORE POP JUMP JUMPDEST PUSH0 PUSH2 0x1897 PUSH1 0x18 DUP4 PUSH2 0x1730 JUMP JUMPDEST SWAP2 POP PUSH2 0x18A2 DUP3 PUSH2 0x1863 JUMP JUMPDEST PUSH1 0x20 DUP3 ADD SWAP1 POP SWAP2 SWAP1 POP JUMP JUMPDEST PUSH0 PUSH1 0x20 DUP3 ADD SWAP1 POP DUP2 DUP2 SUB PUSH0 DUP4 ADD MSTORE PUSH2 0x18C4 DUP2 PUSH2 0x188B JUMP JUMPDEST SWAP1 POP SWAP2 SWAP1 POP JUMP JUMPDEST PUSH32 0x5468697320706F736974696F6E20697320616C72656164792074616B656E2E00 PUSH0 DUP3 ADD MSTORE POP JUMP JUMPDEST PUSH0 PUSH2 0x18FF PUSH1 0x1F DUP4 PUSH2 0x1730 JUMP JUMPDEST SWAP2 POP PUSH2 0x190A DUP3 PUSH2 0x18CB JUMP JUMPDEST PUSH1 0x20 DUP3 ADD SWAP1 POP SWAP2 SWAP1 POP JUMP JUMPDEST PUSH0 PUSH1 0x20 DUP3 ADD SWAP1 POP DUP2 DUP2 SUB PUSH0 DUP4 ADD MSTORE PUSH2 0x192C DUP2 PUSH2 0x18F3 JUMP JUMPDEST SWAP1 POP SWAP2 SWAP1 POP JUMP JUMPDEST PUSH32 0x596F7520617265206E6F742070617274206F6620746869732067616D652E0000 PUSH0 DUP3 ADD MSTORE POP JUMP JUMPDEST PUSH0 PUSH2 0x1967 PUSH1 0x1E DUP4 PUSH2 0x1730 JUMP JUMPDEST SWAP2 POP PUSH2 0x1972 DUP3 PUSH2 0x1933 JUMP JUMPDEST PUSH1 0x20 DUP3 ADD SWAP1 POP SWAP2 SWAP1 POP JUMP JUMPDEST PUSH0 PUSH1 0x20 DUP3 ADD SWAP1 POP DUP2 DUP2 SUB PUSH0 DUP4 ADD MSTORE PUSH2 0x1994 DUP2 PUSH2 0x195B JUMP JUMPDEST SWAP1 POP SWAP2 SWAP1 POP JUMP JUMPDEST PUSH32 0x49742773206E6F7420796F7572207475726E2E00000000000000000000000000 PUSH0 DUP3 ADD MSTORE POP JUMP JUMPDEST PUSH0 PUSH2 0x19CF PUSH1 0x13 DUP4 PUSH2 0x1730 JUMP JUMPDEST SWAP2 POP PUSH2 0x19DA DUP3 PUSH2 0x199B JUMP JUMPDEST PUSH1 0x20 DUP3 ADD SWAP1 POP SWAP2 SWAP1 POP JUMP JUMPDEST PUSH0 PUSH1 0x20 DUP3 ADD SWAP1 POP DUP2 DUP2 SUB PUSH0 DUP4 ADD MSTORE PUSH2 0x19FC DUP2 PUSH2 0x19C3 JUMP JUMPDEST SWAP1 POP SWAP2 SWAP1 POP JUMP JUMPDEST PUSH32 0x546869732067616D652068617320616C726561647920656E6465642E00000000 PUSH0 DUP3 ADD MSTORE POP JUMP JUMPDEST PUSH0 PUSH2 0x1A37 PUSH1 0x1C DUP4 PUSH2 0x1730 JUMP JUMPDEST SWAP2 POP PUSH2 0x1A42 DUP3 PUSH2 0x1A03 JUMP JUMPDEST PUSH1 0x20 DUP3 ADD SWAP1 POP SWAP2 SWAP1 POP JUMP JUMPDEST PUSH0 PUSH1 0x20 DUP3 ADD SWAP1 POP DUP2 DUP2 SUB PUSH0 DUP4 ADD MSTORE PUSH2 0x1A64 DUP2 PUSH2 0x1A2B JUMP JUMPDEST SWAP1 POP SWAP2 SWAP1 POP JUMP JUMPDEST PUSH32 0x47616D6520616C7265616479206861732074776F20706C61796572732E000000 PUSH0 DUP3 ADD MSTORE POP JUMP JUMPDEST PUSH0 PUSH2 0x1A9F PUSH1 0x1D DUP4 PUSH2 0x1730 JUMP JUMPDEST SWAP2 POP PUSH2 0x1AAA DUP3 PUSH2 0x1A6B JUMP JUMPDEST PUSH1 0x20 DUP3 ADD SWAP1 POP SWAP2 SWAP1 POP JUMP JUMPDEST PUSH0 PUSH1 0x20 DUP3 ADD SWAP1 POP DUP2 DUP2 SUB PUSH0 DUP4 ADD MSTORE PUSH2 0x1ACC DUP2 PUSH2 0x1A93 JUMP JUMPDEST SWAP1 POP SWAP2 SWAP1 POP JUMP JUMPDEST PUSH32 0x596F75206D757374206D61746368207468652062657420616D6F756E742E0000 PUSH0 DUP3 ADD MSTORE POP JUMP JUMPDEST PUSH0 PUSH2 0x1B07 PUSH1 0x1E DUP4 PUSH2 0x1730 JUMP JUMPDEST SWAP2 POP PUSH2 0x1B12 DUP3 PUSH2 0x1AD3 JUMP JUMPDEST PUSH1 0x20 DUP3 ADD SWAP1 POP SWAP2 SWAP1 POP JUMP JUMPDEST PUSH0 PUSH1 0x20 DUP3 ADD SWAP1 POP DUP2 DUP2 SUB PUSH0 DUP4 ADD MSTORE PUSH2 0x1B34 DUP2 PUSH2 0x1AFB JUMP JUMPDEST SWAP1 POP SWAP2 SWAP1 POP JUMP JUMPDEST PUSH0 PUSH1 0xFF DUP3 AND SWAP1 POP SWAP2 SWAP1 POP JUMP JUMPDEST PUSH32 0x4E487B7100000000000000000000000000000000000000000000000000000000 PUSH0 MSTORE PUSH1 0x11 PUSH1 0x4 MSTORE PUSH1 0x24 PUSH0 REVERT JUMPDEST PUSH0 PUSH2 0x1B7E DUP3 PUSH2 0x1B3B JUMP JUMPDEST SWAP2 POP PUSH2 0x1B89 DUP4 PUSH2 0x1B3B JUMP JUMPDEST SWAP3 POP DUP3 DUP3 MUL PUSH2 0x1B97 DUP2 PUSH2 0x1B3B JUMP JUMPDEST SWAP2 POP DUP1 DUP3 EQ PUSH2 0x1BA9 JUMPI PUSH2 0x1BA8 PUSH2 0x1B47 JUMP JUMPDEST JUMPDEST POP SWAP3 SWAP2 POP POP JUMP JUMPDEST PUSH0 PUSH2 0x1BBA DUP3 PUSH2 0x1B3B JUMP JUMPDEST SWAP2 POP PUSH2 0x1BC5 DUP4 PUSH2 0x1B3B JUMP JUMPDEST SWAP3 POP DUP3 DUP3 ADD SWAP1 POP PUSH1 0xFF DUP2 GT ISZERO PUSH2 0x1BDE JUMPI PUSH2 0x1BDD PUSH2 0x1B47 JUMP JUMPDEST JUMPDEST SWAP3 SWAP2 POP POP JUMP JUMPDEST PUSH0 PUSH2 0x1BEE DUP3 PUSH2 0x153C JUMP JUMPDEST SWAP2 POP PUSH2 0x1BF9 DUP4 PUSH2 0x153C JUMP JUMPDEST SWAP3 POP DUP3 DUP3 MUL PUSH2 0x1C07 DUP2 PUSH2 0x153C JUMP JUMPDEST SWAP2 POP DUP3 DUP3 DIV DUP5 EQ DUP4 ISZERO OR PUSH2 0x1C1E JUMPI PUSH2 0x1C1D PUSH2 0x1B47 JUMP JUMPDEST JUMPDEST POP SWAP3 SWAP2 POP POP JUMP INVALID LOG2 PUSH5 0x6970667358 0x22 SLT KECCAK256 PUSH5 0x291B02787C 0x2A 0x4C 0xB1 DUP3 GT 0x4E 0xE7 CODESIZE SWAP6 LT DUP12 0x2A DUP4 SAR 0xE DUP2 0x22 SWAP15 DIV MCOPY 0xC7 0x4E BLOBBASEFEE DELEGATECALL 0xD6 DELEGATECALL PUSH5 0x736F6C6343 STOP ADDMOD BYTE STOP CALLER "
		},
		"gasEstimates": {
			"creation": {
				"codeDepositCost": "1451800",
				"executionCost": "1511",
				"totalCost": "1453311"
			},
			"external": {
				"createGame()": "infinite",
				"games(uint256)": "infinite",
				"joinGame(uint256)": "57754",
				"makeMove(uint256,uint256)": "infinite"
			},
			"internal": {
				"checkWin(uint256)": "infinite",
				"isDraw(uint256)": "infinite",
				"payout(uint256)": "infinite",
				"refund(uint256)": "infinite"
			}
		},
		"methodIdentifiers": {
			"createGame()": "7255d729",
			"games(uint256)": "117a5b90",
			"joinGame(uint256)": "efaa55a0",
			"makeMove(uint256,uint256)": "dea9456d"
		}
	},
	"abi": [
		{
			"inputs": [],
			"name": "createGame",
			"outputs": [],
			"stateMutability": "payable",
			"type": "function"
		},
		{
			"inputs": [
				{
					"internalType": "uint256",
					"name": "",
					"type": "uint256"
				}
			],
			"name": "games",
			"outputs": [
				{
					"internalType": "address",
					"name": "player1",
					"type": "address"
				},
				{
					"internalType": "address",
					"name": "player2",
					"type": "address"
				},
				{
					"internalType": "enum TicTacToe.Player",
					"name": "currentPlayer",
					"type": "uint8"
				},
				{
					"internalType": "enum TicTacToe.GameState",
					"name": "state",
					"type": "uint8"
				},
				{
					"internalType": "uint256",
					"name": "betAmount",
					"type": "uint256"
				}
			],
			"stateMutability": "view",
			"type": "function"
		},
		{
			"inputs": [
				{
					"internalType": "uint256",
					"name": "gameId",
					"type": "uint256"
				}
			],
			"name": "joinGame",
			"outputs": [],
			"stateMutability": "payable",
			"type": "function"
		},
		{
			"inputs": [
				{
					"internalType": "uint256",
					"name": "gameId",
					"type": "uint256"
				},
				{
					"internalType": "uint256",
					"name": "position",
					"type": "uint256"
				}
			],
			"name": "makeMove",
			"outputs": [],
			"stateMutability": "nonpayable",
			"type": "function"
		}
	]
}